03092022GLOBE1 GF                               1081476564          00000000052144858007757                         SBTC      22310                              3845424                  C12103092022               11282021          05MC-EWT                                                                                                               MCG
03092022MIGRATED INNOVE1 GF                     901002809           00000000292864858007757                         SBTC      22310                              3845422                  C16003092022               11282021          05MC-VAT                                                                                                               MCG
03092022NON MIGRATED BAYAN1 GF                  721156010           00000000575004858007757                         SBTC      22310                              3845421                  C16003092022               11282021          05MC-HPBILPAY                                                                                                          MCG
03092022NON MIGRATED INNOVE1 GF                 861466892           00000000000234858007757                         SBTC      22310                              3845427                  C12103092022               11282021          05MC-EWT                                                                                                               MCG
03092022NON MIGRATED INNOVE2 GF                 611063267           00000000017394858007757                         SBTC      22310                              3845429                  C16003092022               11282021          05MC-VAT                                                                                                               MCG
03092022GLOBE2 GF                               19195553            00000000325384858007757                         SBTC      22310                              3845420                  C16003092022               11282021          05MC-HPBILPAY                                                                                                          MCG
03092022MIGRATED INNOVE1 GF                     931222221           00000000016234858007757                         SBTC      22310                              3845412                  C12103092022               11282021          05MC-EWT                                                                                                               MCG
03092022MIGRATED BAYAN1 GF                      731192221           00000000017394858007757                         SBTC      22310                              3845423                  C16003092022               11282021          05MC-VAT                                                                                                               MCG
03092022GLOBE3 GF                               9171893737          00000000355384858007757                         SBTC      22310                              3845477                  C16003092022               11282021          05MC-HPBILPAY                                                                                                          MCG
03092022GLOBE4 ECA GF                           555                 00000000010344858007757                         MBTC      412649695                          3925310                  C12103092022               11132021          05MC-EWT                                                                                                               MCG
03092022REJECT1 GF                                   1071476637          00000000076824858007757                         MBTC      412649695                          3925808                  C16003092022               11132021          05MC-VAT                                                                                                               MCG
03092022GLOBE5 GF                               59835553            00000000205804858007757                         MBTC      412649695                          3925808                  C16003092022               11132019          05MC-HPBILPAY                                                                                                          MCG
